:100000000C94F2000C9429140C942A120C942914C8
:100010000C9429140C9429140C9429140C945A0C43
:100020000C9429140C94D60B0C94020C0C942E0CEA
:100030000C9429140C9429140C9429140C9429144C
:100040000C9429140C94860C0C94AF0C0C94651130
:100050000C9429140C9429140C9429140C9429142C
:100060000C9429140C9429140C942A0D0C94530DFF
:100070000C948F110C9429140C9429140C94D80C02
:100080000C94010D0C947A110C9429140C942914DD
:10009000319C319E8031B631B78031B731B8803173
:1000A000B831B98031B931BA8031BA31BB8031BB96
:1000B00031BC80313E315E8031BC31BD8031BD31DB
:1000C000BE8031BE31BF80319E31A08031BF31C092
:1000D0008031A031A28031C031C18030F6311A00A8
:1000E000286A311A313E8031A231A400289C31A403
:1000F00031A600289E31C131C28031C231C3803166
:10010000C331C480316C31748031C431C58031C594
:1001100031C68031C631C7803174317C8031A6311F
:10012000A80028A031A831AA0028A231C731C88070
:1001300031C831C98031C931CA80317C31848031C4
:10014000CA31CB8031CB31CC8031CC31CD803184C0
:10015000318C80315E316C00288E31CD31CE8031D2
:10016000AA31AC0028A431AC31AE0028A631AE31A2
:10017000B00028A831B031B20028AA31B231B400A1
:1001800028AC31B431B60028AE31CE31CF8031CF7A
:1001900031D08031D031D180318C31948031D13126
:1001A000D28031D231D38031D331D4803194319C5B
:1001B00080300630568031D431D58031D531D6806B
:1001C00031D631D78031D731D88031D831D980314B
:1001D000D931DA80305630A68030A630F680300033
:1001E0003006800011241FBECFEFCDBFDFE3DEBF9E
:1001F000E0E9F0E041E017C0B591A5913591259176
:10020000059107FD0CC095918591EF01F92FE82F1D
:1002100005900D92A217B307D9F7FE0104C01D92F5
:10022000A217B307E1F7E33EF40731F70E947F031B
:080230000C941A01F894FFCFB1
:10023800312E302E300048656C6C6F006C65642080
:1002480064617461206F6666006C65642064617423
:1002580061206F6E006C656420657272206F66663F
:10026800006C656420657272206F6E006461746151
:10027800206F66660064617461206F6E006572723B
:10028800206F666600657272206F6E003100320062
:1002980033003400302E302E31003C3C3C20257396
:1002A800203E3E3E200D0A00444953434F4E4E45E2
:1002B8004354005D0053545245414D5F4F50454EE5
:1002C800005B0030313233343536373839414243F8
:1002D80044454600303132333435363738394142B7
:1002E80043444546007810DD0E56135D13EB130D9D
:1002F80011E613C913BE0E0B1091101B0F64136B7C
:1003080013F5132311F013CF13FC0E5A0EAA10592C
:100318000F7213791304143911FF13DB133A0F28E2
:1003280010DD0E7810C9135D130F130513FC11E4CB
:0303380012BE0AE8
:10033C00ABE0B0E0E4EAF1E00C94DC106C017B0182
:10034C008A01FC0116821782838181FFCCC1CE0108
:10035C0001963C01F6019381F70193FD859193FF82
:10036C0081917F01882309F4BAC1853239F493FD58
:10037C00859193FF81917F01853229F4B60190E03C
:10038C000E943D09E7CF912C212C312CFFE1F31574
:10039C00D8F08B3279F038F4803279F08332A1F4D2
:1003AC00232D20611DC08D3261F0803369F4232D23
:1003BC00216016C0832D8260382EE32DE4603E2E22
:1003CC002AC0F32DF8601DC037FC2DC020ED280F7E
:1003DC002A3040F08E32B9F436FC81C1232D2064D2
:1003EC00322E19C036FE06C08AE0989E200D1124CC
:1003FC00922E11C0EAE02E9E200D1124222EF32DF8
:10040C00F0623F2E08C08C3621F4832D8068382E84
:10041C0002C0883641F4F70193FD859193FF8191D9
:10042C007F018111B3CF982F9F7D9554933028F481
:10043C000C5F1F4F9FE399830DC0833631F08337D8
:10044C0071F0833509F059C021C0F801808189838E
:10045C000E5F1F4F88248394912C530113C02801E5
:10046C00F2E04F0E511CF801A080B18036FE03C0A3
:10047C00692D70E002C06FEF7FEFC5010E94FA1288
:10048C004C018201F32DFF773F2E16C0280122E08C
:10049C00420E511CF801A080B18036FE03C0692DBC
:1004AC0070E002C06FEF7FEFC5010E94EF124C01AC
:1004BC00F32DF0683F2E820133FC1BC0822D90E09F
:1004CC0088169906B0F4B60180E290E00E943D09CE
:1004DC002A94F4CFF50137FC859137FE81915F01A9
:1004EC00B60190E00E943D0921102A9421E0821A65
:1004FC0091088114910471F7E8C0843611F08936A3
:10050C0041F5F80137FE07C06081718182819381CA
:10051C000C5F1F4F08C060817181072E000C880B87
:10052C00990B0E5F1F4FF32DFF763F2E97FF09C0DF
:10053C0090958095709561957F4F8F4F9F4FF06888
:10054C003F2E2AE030E0A3010E948C06882E8618EC
:10055C0045C0853731F4232D2F7EB22E2AE030E0B2
:10056C0025C0932D997FB92E8F36C1F018F488359C
:10057C0079F0B5C0803719F0883721F0B0C0E92F79
:10058C00E061BE2EB4FE0DC0FB2DF460BF2E09C081
:10059C0034FE0AC0292F2660B22E06C028E030E0B7
:1005AC0005C020E130E002C020E132E0F801B7FEE6
:1005BC0007C060817181828193810C5F1F4F06C0DF
:1005CC006081718180E090E00E5F1F4FA3010E945B
:1005DC008C06882E8618FB2DFF773F2E36FE0DC01D
:1005EC00232D2E7FA22E891458F434FE0BC032FC1E
:1005FC0009C0832D8E7EA82E05C0B82CA32C03C059
:10060C00B82C01C0B92CA4FE0FC0FE01E80DF11DE1
:10061C008081803321F49A2D997EA92E09C0A2FEE7
:10062C0006C0B394B39404C08A2D867809F0B394B1
:10063C00A3FC11C0A0FE06C0B21488F4280C922CA6
:10064C009B180EC0B21460F4B60180E290E00E94D8
:10065C003D09B394F7CFB21418F42B1802C0982CA0
:10066C00212CA4FE10C0B60180E390E00E943D094D
:10067C00A2FE17C0A1FC03C088E790E002C088E589
:10068C0090E0B6010CC08A2D867859F0A1FE02C00C
:10069C008BE201C080E2A7FC8DE2B60190E00E94E3
:1006AC003D09891438F4B60180E390E00E943D09BD
:1006BC009A94F7CF8A94F301E80DF11D8081B6016D
:1006CC0090E00E943D098110F5CF222009F442CE22
:1006DC00B60180E290E00E943D092A94F6CFF60123
:1006EC008681978102C08FEF9FEF2B96E2E10C94ED
:0206FC00F510F7
:1006FE00CF93DF9300D0CDB7DEB71A820E94C3101E
:10070E0060E586EA90E30E94CA1178940E94790906
:10071E000F2EA12CFAE0BF2EF02D662463940F2E1F
:10072E00FDEEEF2EF2E4FF2EF02D0F2EF9E2CF2E7E
:10073E00F3E4DF2EF02D0F2EF5EA4F2EF4E05F2EB0
:10074E00F02D762C6894332434F86894222425F8FE
:10075E000E94D513882369F0D5011B966C92809167
:10076E00D6318F5F8093D6318091D5318F5F809354
:10077E00D5310E941D148A838A81882309F46DC0A5
:10078E008091D6318B3018F07092D83104C08091A0
:10079E00D831882399F00E94780F0E947C0B0E941A
:1007AE00D10F0E941F0B0E944E0B1092D631109249
:1007BE00D8316AC00E9419130E9498040E94400703
:1007CE008111F8CFF701828C938C39C00091D93109
:1007DE0010E0D7015496ED91FC9155970995F801CB
:1007EE00EA5AFF4C80838091D931282F30E0F901ED
:1007FE00EA5AFF4C90819D3021F09A3011F08F34DF
:10080E00D9F4F901EA5AFF4C108266E570E386E0EE
:10081E0090E30E94801386E590E30E94EA0686E04C
:10082E0090E30E94210A66E570E386E090E30E9461
:10083E0080131092D93103C08F5F8093D931F401A8
:10084E0009958111C3CF20C0D70156960D911C91E9
:10085E0057970E941913F80109950E9440078111BC
:10086E00F3CFF701828C938C0BC0D6010D911C91A6
:10087E00D7015496ED91FC9155970995F80109957C
:10088E00F40109958111F1CF8A81811107C0809100
:10089E00D531823050F07092D7310BC08091D53166
:1008AE00863018F07092D73104C08091D7318823EA
:1008BE0019F07092D43104C08091D431882349F05C
:1008CE008A810E945B051092D7311092D43110921A
:1008DE00D531D7019E96ED91FC919F97099588236E
:1008EE0009F436CFD7019896ED91FC919997099519
:1008FE0089838981803311F4F201308289818133B9
:10090E0019F4A6EAB4E03C928981833311F4F20122
:10091E0020828981843309F01BCF80E28093A60464
:02092E0011CFE7
:10093000CF939091B8319330E1F028F4913051F099
:10094000923061F0AEC0953089F1F8F0963009F43C
:1009500047C0A7C082E08093B831ABC08093B73165
:10096000833519F481E08093B93183E08093B83105
:10097000A0C08A3310F4805302C08F7587538093D0
:10098000B63184E08093B83194C09091B63192959D
:10099000907F8A3310F4805302C08F758753890F7C
:1009A0008093B63185E08093B83183C08A3318F4E0
:1009B00090E0C09703C08F7590E0C79780939C31FB
:1009C00090939D318091B63181508093B6318111E1
:1009D00003C01092B8316DC086E08093B83169C011
:1009E00020919C3130919D3122953295307F322774
:1009F000207F32278A3318F490E0C09703C08F75A8
:100A000090E0C797820F931F80939C3190939D3104
:100A10002091B731233549F42091B931222309F4CB
:100A200046C01092B9310E946E12C0919C318091E3
:100A3000B7318C3419F0833501F516C0C4FD0AC0F6
:100A4000C0FD04C080E18093A50417C080E18093BD
:100A5000A60413C0C0FD04C080E28093A5040DC0AD
:100A600080E28093A60409C0E0910343F09104431F
:100A70008C2F09958C2F0E9447128091B63181509E
:100A80008093B631811109C08091B731833511F45B
:100A90000E9438081092B8310CC085E08093B831BC
:100AA00008C08B3531F481E08093B83102C0C82F83
:060AB000DBCFCF91089599
:100AB600BF92CF92DF92EF92FF920F931F93CF9345
:100AC600DF93CDB7DEB7A397CDBFDEBFD82EC6B2B4
:100AD6001982E6B2B6B21C82FEB00EB11F82CE01FA
:100AE6000F960E94EC111A86198ACE014E960E9424
:100AF60001098BE70E94590F11E0C3FA662760F9D6
:100B06006127CE0101960E94EE0FBE016F5F7F4FF7
:100B160080E50E94A4118CE20E94590FE5FAEE24AA
:100B2600E0F8E126EE0C6D2D660F660FE60EB4FAC0
:100B3600662760F916276E2D610F6770CE01049641
:100B46000E94EE0FBE016C5F7F4F8CE40E94A411E1
:100B56008CE20E94590F6F2D607470E07595679551
:100B66007595679575956795759567957595679567
:100B760006950170600F6370CE0107960E94EE0F16
:100B8600BE01695F7F4F87E40E94A4118CE20E9438
:100B9600590F6F857889CE010A960E941B12BE01F5
:100BA600665F7F4F84E50E94A4118CE20E94590F74
:100BB6006E8D7F8D7F70CE0141960E941B1268A1BB
:100BC60079A17F70CE0141960E941B126AA17BA17A
:100BD6007F70CE0141960E941B12BE016F5E7F4F51
:100BE60081E40E94A4118DE70E94590F8DE00E94B6
:100BF600590F8AE00E94590FA396CDBFDEBFDF9141
:100C0600CF911F910F91FF90EF90DF90CF90BF9003
:020C160008953F
:100C18000F931F93CF93DF930E94EA0940E054E0BB
:100C280081E5FA01808320E234E0F901108280E452
:100C380094E061E0FC016083C0E6D4E06DE0688385
:100C4800A0E8B4E01C9200EA14E061E3F8016083D4
:100C5800FA011482F9011482FC0114826CE06C839D
:100C680014961C92149760E3F8016483FA01108AC1
:100C7800118A128A138A148A158A168A178AF90120
:100C8800108A118A128A138A148A158A168A178A70
:100C9800FC01108A118A128A138A148A158A168A04
:100CA800178A188A88E0898B1A8A1B8A1C8A1D8AE7
:100CB8008E8B1F8A50961C92509751961C92519772
:100CC80052961C92529753961C92539754961C9284
:100CD800549755961C92559756961C925697579628
:100CE8001C92F801108A118A128A138A148A158AAA
:100CF800168A178AE0EEF5E01182108283E0848379
:100D0800158213821282DF91CF911F910F9108955E
:100D1800FA01AA27283051F1203181F1E8946F9324
:100D28006E7F6E5F7F4F8F4F9F4FAF4FB1E03ED0CA
:100D3800B4E03CD0670F781F891F9A1FA11D680F68
:100D4800791F8A1F911DA11D6A0F711D811D911D9B
:100D5800A11D20D009F468943F912AE0269F112410
:100D68003019305D3193DEF6CF010895462F477074
:100D7800405D4193B3E00FD0C9F7F6CF462F4F70CF
:100D8800405D4A3318F0495D31FD4052419302D02D
:100D9800A9F7EACFB4E0A6959795879577956795D3
:100DA800BA95C9F700976105710508959B01AC01D3
:100DB8000A2E06945795479537952795BA95C9F7FA
:0C0DC800620F731F841F951FA01D08956B
:100DD400FF920F931F93CF93DF93EC01FC010190DB
:100DE4000020E9F73197E81BF90BFE2EFF0C009168
:100DF400294310912A438BE5F8010995E091BA3112
:100E040081E08E0F8093BA31EF70F0E0E553FD4B33
:100E14008081F801099583E5F8010995EF2DE295A4
:100E2400EF70F0E0E553FD4B8081F8010995EF2D5B
:100E3400EF70F0E0E553FD4B8081F8010995E881FE
:100E4400EE2399F0E295EF70F0E0E553FD4B8081DD
:100E5400F8010995E991EF70F0E0E553FD4B8081CD
:100E6400F8010995E881E111EDCF8DE5F8010995C7
:0C0E7400DF91CF911F910F91FF90089526
:100E80008091BD31811151C0E0912F43F0913043E9
:100E90000995882309F449C0E0912B43F0912C4334
:100EA00009959091BC31992359F1853289F41092BA
:100EB000BC31E0919E31F0919F311082E091394335
:100EC000F0913A438091A0319091A13109952BC0C6
:100ED000E0919E31F0919F319091BF312091A031EE
:100EE0003091A131290F311DE217F307E0F49F0182
:100EF0002F5F3F4F20939E3130939F31808313C0EB
:100F0000853261F481E08093BC318091A031909171
:100F1000A13180939E3190939F3105C091E09093D1
:0C0F2000BD318093BE318091BD31089539
:100F2C00FF920F931F93CF93DF93F82EEB01009159
:100F3C00294310912A438BE5F8010995E091BA31C8
:100F4C0081E08E0F8093BA31EF70F0E0E553FD4BEA
:100F5C008081F80109958F2DF8010995FE0101900A
:100F6C000020E9F73197EC1BFD0BF295E295EF7041
:100F7C00EF27FF70EF27EF70FF27E553FD4B8081C4
:100F8C00F8010995FE0101900020E9F73197EC1B5F
:100F9C00FD0BEF70FF27E553FD4B8081F8010995A0
:100FAC008881882331F02196F80109958991811166
:100FBC00FBCF8DE5F8010995DF91CF911F910F9132
:040FCC00FF900895F5
:100FD000EDE3F1E380818E7F8083809139319091C0
:100FE0003A31019719F40E94C31302C00E94BD1345
:100FF000EAE1F1E3878D90A10197878F90A3892B78
:1010000071F0A58DB68D8091A8088C93858D968DF5
:101010000196858F968F0E94AB1384E00895AAE114
:10102000B1E35D96ED91FC915E978091A808808375
:101030005D968D919C915E9701965D968D939C93A4
:101040005E97EDE3F1E3808188608083ED91FC9110
:1010500011971C968D919C911D9709958250823015
:1010600020F40E94C31388E008950E94611208953D
:101070008DE70E94590F8DE00E94590F8AE00E946F
:10108000590FE091BB31F0E0E25CFE4C10826EE360
:1010900072E48EE391E30E943D13892B39F488E6D4
:1010A0000E94590F89E60E94590F089564E472E482
:1010B0008EE391E30E943D13892B21F480E180931C
:1010C000A504089561E572E48EE391E30E943D1367
:1010D000892B21F480E18093A60408956DE572E4E4
:1010E0008EE391E30E943D13892B21F480E28093EB
:1010F000A504089569E672E48EE391E30E943D132E
:0C110000892B19F480E28093A604089566
:10110C000E94E1138823C9F0AAE1B1E31696ED9190
:10111C00FC91179752968D919C915397099582301B
:10112C0019F0833021F006C00E94541208950E94D9
:10113C009E1208950E94D9120895EDE3F1E3808187
:10114C0088608083AAE1B1E3ED91FC9111971C9624
:10115C008D919C911D970995833039F0843041F025
:10116C00823049F40E94541208950E949E120895F0
:0C117C000E94B20908950E94D912089543
:10118800EF92FF921F93CF93DF9300D0CDB7DEB7D6
:10119800182F6A838AE289836894EE24E1F8F12C97
:1011A800812F0E94570A8823D9F3BE016F5F7F4FB2
:1011B8008AE792E10E94871361E070E0CE0102960F
:1011C8000E94DB1160E070E08FE294E10E948D13D1
:1011D8000E9409140E94360E8130E1F3882321F021
:1011E80081E0E81AF108E1F689810F900F90DF910C
:0A11F800CF911F91FF90EF90089532
:101202000F931F93CF93DF9300D0CDB7DEB78C013E
:1012120062E089E10E94C40880FFFACFCE01019604
:101222000E94A20D89819A81F8018083918364E0F2
:1012320089E10E94C40880FFFACFCE0101960E9484
:10124200C70D89819A81F8018283938366E089E1DF
:101252000E94C40880FFFACFCE0101960E94EC0DD5
:1012620089819A81F801848395830F900F90DF9191
:08127200CF911F910F91089527
:10127A000F931F93CF93DF93FB01238121FD03C0BB
:10128A008FEF9FEF2CC022FF16C046815781248121
:10129A0035814217530744F4A081B1819D012F5F24
:1012AA003F4F208331838C93268137812F5F3F4FB5
:1012BA002683378314C08B01EC01FB010084F1857E
:1012CA00E02D0995892BE1F6D80116968D919C910E
:1012DA001797019616968D939C931797CE01DF91D7
:0812EA00CF911F910F910895AF
:1012F200EF92FF920F931F93CF93DF93C9E2D3E450
:10130200EC85FD8581E00995EA84FB8481E0F701A3
:1013120009950E851F8581E090E0F801099580E02E
:10132200F7010995E885F98581E0099588EC90E057
:10133200F80109958E010E80DF81C02D06C0D8010B
:101342001296ED91FC9113970995FE010995811171
:10135200F6CF81E0DF91CF911F910F91FF90EF9037
:021362000895EC
:101364000E94E1138823C9F0AAE1B1E31696ED9136
:10137400FC91179752968D919C91539709958230C1
:1013840019F0833021F006C00E94541208950E947F
:101394009E1208950E94D9120895EDE3F1E380812D
:1013A4008E7F8083EAE1F1E3A58DB68DCD010196B0
:1013B400858F968F8C918093A808878D90A1019733
:1013C400878F90A3892B11F485E0089583E0089515
:1013D400E0E9F4E0808188608193E83984E0F807EB
:1013E400C9F7E0EBF4E0808188608193E83B84E016
:1013F400F807C9F7E0E1F4E0808188608193E8317F
:1014040084E0F807C9F7E0E3F4E080818860819321
:10141400E83384E0F807C9F7E0E5F4E08081886008
:101424008193E83584E0F807C9F7E0E7F4E08081C8
:0E14340088608193E83784E0F807C9F70895CF
:10144200CF93DF93EC0164E772E40E943D13892B92
:1014520029F480E18093A50481E025C06DE772E460
:10146200CE010E943D13892B29F480E18093A604CA
:1014720081E019C065E872E4CE010E943D13892B18
:1014820029F480E28093A50481E00DC06DE872E446
:10149200CE010E943D13892B29F480E28093A60499
:0C14A20081E001C080E0DF91CF9108954F
:1014AE0090913D3192FD2EC0EAE1F1E3848FADE3E0
:1014BE00B1E3892F887F9EE091A324EF31E0228F44
:1014CE00338F846088608C938BE294E18083918368
:1014DE001486158682839383168617868483958356
:1014EE00108A118A86839783128A138A8DE294E179
:1014FE0080879187148A158A0E942B130E94991354
:08150E0080E0089581E00895DA
:101516001F93CF93DF9300D01F92CDB7DEB7182F5E
:101526006B83812F0E94570A8823D9F3BE016F5F10
:101536007F4F86E892E10E94871361E070E0CE015A
:1015460003960E94DB1160E070E08FE294E10E9456
:101556008D130E9409140E94360E8130E1F38981B1
:101566009A819827892798272396CDBFDEBFDF91DA
:06157600CF911F910895C2
:10157C00CF93DF93D82FC92F9F938F9382EA92E456
:10158C009F938F930E944F1160EB72E48D2F9C2FD1
:10159C000E9445100F900F900F900F90892B39F0EF
:1015AC001092C0318BEB92E40E94EF0A0FC06DEBEE
:1015BC0072E48D2F9C2F0E944510892B39F081E00D
:1015CC008093C03189EC92E40E94EF0ADF91CF91B5
:0215DC00089570
:1015DE000F931F93CF93DF93E0910230F09103307E
:1015EE00238121FF1BC08C01D0E0C0E0F801819166
:1015FE008F016091023070910330DB011896ED91EE
:10160E00FC911997882331F00995892B79F3DFEF37
:10161E00CFEFECCF8AE00995892B19F08FEF9FEF72
:10162E0002C08D2F9C2FDF91CF911F910F910895A6
:10163E001F93CF93DF9300D01F92CDB7DEB766B363
:10164E00198211E0629561706127CE0101960E94A8
:10165E00B40FBE016F5F7F4F8CE40E94960766B396
:10166E00198265FB662760F96127605FCE010196DE
:10167E000E94B40FBE016F5F7F4F8CE40E949607ED
:0E168E002396CDBFDEBFDF91CF911F9108954F
:10169C00EF92FF920F931F93CF93DF93CDB7DEB7EB
:1016AC006397CDBFDEBF198208E312E40F2EFDE372
:1016BC00EF2EF2E4FF2EF02DF80161918F01CE0197
:1016CC0001960E94B40F0E151F05B1F7BE016F5F96
:1016DC007F4F86E50E9496076396CDBFDEBFDF91F4
:0C16EC00CF911F910F91FF90EF90089597
:1016F800CF93DF93CDB7DEB76397CDBFDEBF198237
:10170800CE010E960E9401096E857F857F70CE01FD
:1017180001960E940C12688979897F70CE01019622
:101728000E940C126A897B897F70CE0101960E9403
:101738000C12BE016F5F7F4F88E50E949607639683
:0A174800CDBFDEBFDF91CF91089501
:10175200CF93DF930E94991380913D3180FF07C0A0
:101762000E94E113882319F08FE080933B310E949D
:10177200A513882319F080E180933B310E949F13C7
:10178200882319F081E180933B31CAE1D1E3E9A1D9
:10179200F0E0EE0FFF1FEA50FF4C0190F081E02DC8
:0A17A200099589A3DF91CF91089506
:1017AC001F920F920FB60F9211242F933F934F93CA
:1017BC005F936F937F938F939F93AF93BF93EF93AD
:1017CC00FF93E091B031F091B131309709F0099568
:1017DC0080E180930B0AFF91EF91BF91AF919F91A4
:1017EC008F917F916F915F914F913F912F910F90BE
:0817FC000FBE0F901F9018951D
:101804001F920F920FB60F9211242F933F934F9371
:101814005F936F937F938F939F93AF93BF93EF9354
:10182400FF93E091AE31F091AF31309709F0099513
:1018340080E280930B0AFF91EF91BF91AF919F914A
:101844008F917F916F915F914F913F912F910F9065
:081854000FBE0F901F901895C4
:10185C001F920F920FB60F9211242F933F934F9319
:10186C005F936F937F938F939F93AF93BF93EF93FC
:10187C00FF93E091AC31F091AD31309709F00995BF
:10188C0080E480930B0AFF91EF91BF91AF919F91F0
:10189C008F917F916F915F914F913F912F910F900D
:0818AC000FBE0F901F9018956C
:1018B4001F920F920FB60F9211242F933F934F93C1
:1018C4005F936F937F938F939F93AF93BF93EF93A4
:1018D400FF93E091AA31F091AB31309709F009956B
:1018E40081E080930B0AFF91EF91BF91AF919F919B
:1018F4008F917F916F915F914F913F912F910F90B5
:081904000FBE0F901F90189513
:10190C001F920F920FB60F9211242F933F934F9368
:10191C005F936F937F938F939F93AF93BF93EF934B
:10192C00FF93E091A431F091A531309709F009951E
:10193C00FF91EF91BF91AF919F918F917F916F919B
:10194C005F914F913F912F910F900FBE0F901F9071
:02195C001895DC
:10195E001F920F920FB60F9211242F933F934F9316
:10196E005F936F937F938F939F93AF93BF93EF93F9
:10197E00FF93E091A231F091A331309709F00995D0
:10198E00FF91EF91BF91AF919F918F917F916F9149
:10199E005F914F913F912F910F900FBE0F901F901F
:0219AE0018958A
:1019B0001F920F920FB60F9211242F933F934F93C4
:1019C0005F936F937F938F939F93AF93BF93EF93A7
:1019D000FF93E091A831F091A931309709F0099572
:1019E000FF91EF91BF91AF919F918F917F916F91F7
:1019F0005F914F913F912F910F900FBE0F901F90CD
:021A0000189537
:101A02001F920F920FB60F9211242F933F934F9371
:101A12005F936F937F938F939F93AF93BF93EF9354
:101A2200FF93E091A631F091A731309709F0099523
:101A3200FF91EF91BF91AF919F918F917F916F91A4
:101A42005F914F913F912F910F900FBE0F901F907A
:021A52001895E5
:101A54001F920F920FB60F9211242F933F934F931F
:101A64005F936F937F938F939F93AF93BF93EF9302
:101A7400FF93E091B431F091B531309709F00995B5
:101A8400FF91EF91BF91AF919F918F917F916F9152
:101A94005F914F913F912F910F900FBE0F901F9028
:021AA400189593
:101AA6001F920F920FB60F9211242F933F934F93CD
:101AB6005F936F937F938F939F93AF93BF93EF93B0
:101AC600FF93E091B231F091B331309709F0099567
:101AD600FF91EF91BF91AF919F918F917F916F9100
:101AE6005F914F913F912F910F900FBE0F901F90D6
:021AF600189541
:101AF80040E068ED88E790E00E94191440E068ED46
:101B08008CE790E00E94191440E068ED80E790E0CF
:101B18000E94191440E068ED81E690E00E941914D3
:101B280040E068ED80E690E00E94191440E068ED1E
:0C1B380082E690E00E94191480E00895FD
:101B44000F931F93CF938C0162E089E10E94C40834
:101B540080FFFACF62E089E10E94C408C82F63E0E5
:101B640089E10E94C4082C2F30E0382B3595279545
:101B7400359527953595279535952795F801208333
:0A1B84003183CF911F910F91089556
:101B8E000F931F93CF938C0164E089E10E94C408E8
:101B9E0080FFFACF64E089E10E94C408C82F65E097
:101BAE0089E10E94C4082C2F30E0382B35952795FB
:101BBE00359527953595279535952795F8012083E9
:0A1BCE003183CF911F910F9108950C
:101BD8000F931F93CF938C0166E089E10E94C4089C
:101BE80080FFFACF66E089E10E94C408C82F67E049
:101BF80089E10E94C4082C2F30E0382B35952795B1
:101C0800359527953595279535952795F80120839E
:0A1C18003183CF911F910F910895C1
:101C22006115710581F090E0FC01EE0FFF1FE65E89
:101C3200FE4C60837183880F991FFC01EA5DFE4CA4
:101C420040835183089590E0FC01EE0FFF1FE65E92
:101C5200FE4C2BE234E120833183880F991FFC0173
:0A1C6200EA5DFE4C10821182089525
:101C6C00CF93DF930E949F13882341F0EDE3F1E3C0
:101C7C0080818D7F808382E080933C3180913D31E7
:101C8C0081FD0EC0EDE3F1E38B7F8083CAE1D1E3EC
:101C9C008FEF8C8F0E9499130E9493138AA101C01D
:081CAC0081E0DF91CF91089562
:101CB400E0E4F8E08DE890E28087918780ED858309
:101CC40080EC868383E087831386148616861586C4
:101CD4001092CB311092CC311092CA311092C8318B
:101CE4001092C9311092C7318EE591E3809302308E
:061CF400909303300895F7
:101CFA00EDE3F1E380818E7F8083AAE1B1E382E0A4
:101D0A0092968C9392971496ED91FC911597509612
:101D1A008D919C9151970995823019F0833021F069
:101D2A0006C00E94541208950E949E1208950E94AD
:041D3A00D91208951D
:101D3E000E94B113AAE1B1E382E092968C9392973E
:101D4E001296ED91FC9113971E968D919C911F9773
:101D5E000995823019F0833021F006C00E9454128A
:0E1D6E0008950E949E1208950E94CE120895BC
:101D7C008091C131882389F0E091C231EF5FE77027
:101D8C00E093C231F0E0E459FE4C8081809302086C
:101D9C008091C13181508093C1318091C1318111C9
:0E1DAC0005C0E0E0F8E085818F7D8583089515
:101DBA002091C3312F5F27709091C1319830E1F3A0
:101DCA00E22FF0E0E459FE4C80832093C3310FB632
:101DDA00F8940F928091C1318F5F8093C1310F9037
:0E1DEA000FBEE0E0F8E08581806285830895F9
:101DF8008091C731882389F0E091C831EF5FE7709F
:101E0800E093C831F0E0E458FE4C808180934208AA
:101E18008091C73181508093C7318091C73181113A
:0E1E280005C0E0E4F8E085818F7D8583089594
:101E36002091C9312F5F27709091C7319830E1F317
:101E4600E22FF0E0E458FE4C80832093C9310FB6B0
:101E5600F8940F928091C7318F5F8093C7310F90AE
:0E1E66000FBEE0E4F8E0858180628583089578
:101E74008091CE31882389F0E091CF31EF5FE77014
:101E8400E093CF31F0E0E457FE4C80818093220848
:101E94008091CE3181508093CE318091CE318111A9
:0E1EA40005C0E0E2F8E085818F7D858308951A
:101EB2002091D0312F5F27709091CE319830E1F38D
:101EC200E22FF0E0E457FE4C80832093D0310FB62E
:101ED200F8940F928091CE318F5F8093CE310F9024
:0E1EE2000FBEE0E2F8E08581806285830895FE
:101EF000CF93DF93CDB7DEB72797CDBFDEBF198273
:101F0000CE0106960E94EC116E817F81CE01019672
:101F10000E940C12BE016F5F7F4F84E50E949607FE
:0C1F20002796CDBFDEBFDF91CF91089562
:101F2C00E0E0FAE080EA97E080A791A782A793A768
:101F3C0084A795A710A211A2118212821382148277
:101F4C00158216821782168611861286138686A330
:0C1F5C0097A317868FE0808380E0089533
:101F6800DC010D900020E9F71197E62FE295EF705C
:101F78000E2E000CFF0BE553FD4B80818C93E62F52
:101F8800EF700E2E000CFF0BE553FD4B8081119670
:0A1F98008C93119712961C92089585
:101FA200CF93DF9300D01F92CDB7DEB766B319820D
:101FB20063FB662760F981E06827CE0101960E94E3
:101FC200B40FBE016F5F7F4F80E50E949607239694
:0A1FD200CDBFDEBFDF91CF9108956F
:101FDC00DC010D900020E9F71197E62FE295EF70E8
:101FEC000E2E000CFF0BE452FD4B80818C93E62FE0
:101FFC00EF700E2E000CFF0BE452FD4B80811196FE
:0A200C008C93119712961C92089510
:10201600E0E0F8E08DE890E28087918780ED8583A7
:1020260080EC868383E0878313861486168615865E
:102036001092C5311092C6311092C4311092C2313D
:0A2046001092C3311092C1310895C9
:10205000E0E2F8E086EB92E08087918780ED85836F
:1020600080EC868383E08783138614861686158624
:102070001092D2311092D3311092D1311092CF31CF
:0A2080001092D0311092CE31089575
:10208A00FB0151915523A9F0BF01DC014D91451780
:10209A004111E1F759F4CD010190002049F04D9129
:1020AA0040154111C9F3FB014111EFCF81E090E0E6
:0420BA0001970895ED
:1020BE0090913D3191FD13C0EDE3F1E39260908379
:1020CE00882321F081E080933B3103C082E080932E
:1020DE003B310E94A90B0E94B81180E0089581E067
:0220EE00089553
:1020F0008091C4318823E1F3E091C531EF5FE7704F
:10210000E093C5310FB6F8940F928091C43181509D
:102110008093C4310F900FBEF0E0EC58FE4C8081EC
:02212000089520
:102122008091CA318823E1F3E091CB31EF5FE77010
:10213200E093CB310FB6F8940F928091CA3181505F
:102142008093CA310F900FBEF0E0EC57FE4C8081B5
:022152000895EE
:102154008091D1318823E1F3E091D231EF5FE770D0
:10216400E093D2310FB6F8940F928091D13181501F
:102174008093D1310F900FBEF0E0EC56FE4C80817D
:022184000895BC
:102186000E940C060E94C2120E944E130E947C0DF1
:102196000E9446130E94B6120E9439120E94960FA0
:1021A6000E945A0E0E9492120E9428100E940B1042
:0221B60008958A
:1021B8002F923F924F925F926F927F928F929F924F
:1021C800AF92BF92CF92DF92EF92FF920F931F933D
:1021D800CF93DF93CDB7DEB7CA1BDB0BCDBFDEBF16
:0221E800099458
:1021EA002A88398848885F846E847D848C849B849D
:1021FA00AA84B984C884DF80EE80FD800C811B81AB
:10220A00AA81B981CE0FD11DCDBFDEBFED010895E0
:10221A0090910008E091C631EF5FE7708091C53177
:10222A00E81759F0E093C631F0E0EC58FE4C908381
:0C223A008091C4318F5F8093C4310895FF
:1022460090914008E091CC31EF5FE7708091CB31FF
:10225600E81759F0E093CC31F0E0EC57FE4C908350
:0C2266008091CA318F5F8093CA310895C7
:1022720090912008E091D331EF5FE7708091D231E5
:10228200E81759F0E093D331F0E0EC56FE4C90831E
:0C2292008091D1318F5F8093D13108958D
:10229E00A0E0B0E0E5E5F1E10C94EC10AE014B5F8F
:1022AE005F4FFA0161917191AF018091023090916F
:0C22BE0003300E949E01E2E00C94051128
:1022CA001F920F920FB60F9211248F93EF93FF93E1
:1022DA00E0E0F8E0848180648483FF91EF918F913C
:0A22EA000F900FBE0F901F90189583
:1022F4001F920F920FB60F9211248F93EF93FF93B7
:10230400E0E4F8E0848180648483FF91EF918F910D
:0A2314000F900FBE0F901F90189558
:10231E001F920F920FB60F9211248F93EF93FF938C
:10232E00E0E2F8E0848180648483FF91EF918F91E5
:0A233E000F900FBE0F901F9018952E
:10234800CF93DF93EB010E94590F8AE30E94590F44
:102358008881882331F021960E94590F8991811133
:08236800FBCFDF91CF91089536
:10237000CF93DF9380913D3181FF09C0CDE3D1E35D
:102380000E9434130E94A90B888181FDF9CFDF914F
:04239000CF9108954C
:10239400009759F0623058F08093A0319093A131A6
:1023A40061506093BF3181E0089580E0089580E03A
:0223B40008958A
:1023B6009C0190913D3193FF0BC0EAE1F1E3258F3B
:1023C600368F678F70A3EDE3F1E3892F877F8083D4
:0223D600089568
:1023D800CF93DF93EC0165E088E10E948B0A292FF7
:1023E8002F7190E0922B88839983DF91CF91089584
:1023F80098E09093A104813021F488E08093A504AB
:1024080003C088E08093A60488E08093A20408951E
:102418001F93CF93DF93EC01172F0E94B40F612F06
:0E242800CE010E94B40FDF91CF911F91089555
:102436001F93CF93DF93EC01172F0E94EE0F612FAE
:0E244600CE010E94EE0FDF91CF911F910895FD
:102454001F920F920FB60F9211248F9381E08093F5
:0E2464008A008F910F900FBE0F901F90189559
:10247200E0EAF8E0108212828FE5868381E08383AE
:0C248200158217821482108680E00895F5
:10248E00E091BB3191E09E0F9093BB31F0E0E25CA6
:0A249E00FE4C80830E94590F089540
:1024A800EDE3F1E380818160808380913631880F8C
:0A24B80081608093A70884E0089576
:1024C2000E94C3130E94B713EDE3F1E380818D7F75
:0A24D200808310923C3180E00895F1
:1024DC008BE70E94590F83E50E94590F8AE30E94F3
:0824EC00590F1092BB31089555
:1024F40061E070E00E94DB1160E070E080E090E059
:082504000E94871382E0089594
:10250C0062E070E00E94DB1160E070E080E090E03F
:08251C000E94871382E008957C
:1025240040E068ED80E191E00E941914E0E1F1E0FF
:082534001282138280E0089579
:10253C00EDE3F1E380818160808380913631880FF7
:08254C008093A70883E00895C5
:102554000E942B13EDE3F1E380818D7F808382E081
:0825640080933C318EE00895E4
:10256C00E0ECF8E087E2808383E0818312821092B2
:08257C00CD31138280E00895C7
:1025840040E068ED80E890E00E941914E0E8F0E093
:082594001186108680E0089515
:10259C000E942B13EDE3F1E380818D7F80831092F9
:0625AC003C318EE00895B1
:1025B2000E94B713EDE3F1E380818D7F8083109257
:0625C2003C3180E00895A9
:1025C800009741F0E7E8F3E13197F1F700C0000028
:0625D8000197C1F7089510
:1025DE00FC010590615070400110D8F780959095E0
:0625EE008E0F9F1F0895EF
:1025F400FC016150704001900110D8F780959095CE
:062604008E0F9F1F0895D8
:10260A00882321F088E080936604089588E0809307
:04261A0065040895B6
:10261E00882321F084E080936604089584E08093FB
:04262E0065040895A2
:102632000E9440078823E1F31092BD318091BE31A0
:022642000895F9
:10264400EDE3F1E380818D7F808310923C3180E063
:022654000895E7
:10265600E0EAF8E0848188608483858181608583EF
:022666000895D5
:10266800E0EAF8E0858188231CF0858186FFFACFAF
:022678000895C3
:10267A00FB01DC018D91019080190110D9F3990BAE
:02268A000895B1
:10268C0040E068ED80E590E00E94191480E0089528
:10269C0040E068ED80E091E00E94191480E008951C
:0E26AC009091C13181E0983009F480E00895EA
:0E26BA009091C43181E0911101C080E008953B
:0E26C8009091C73181E0983009F480E00895C8
:0E26D6009091CA3181E0911101C080E0089519
:0E26E4009091CE3181E0983009F480E00895A5
:0E26F2009091D13181E0911101C080E00895F6
:0E270000FB01DC0101900D920020E1F708952D
:0C270E00AB01BC0180E00E94110E089598
:0C271A00AB01BC0182E00E94110E08958A
:0C272600E0EAF8E083818F73838308955C
:0C273200E0EAF8E08581806C8583089562
:0C273E008091A50882FB882780F908958F
:0C274A008091A50883FB882780F9089582
:0C275600E0EAF8E084818260848308954A
:0C276200E0EAF8E0858188608583089536
:0C276E00E0EAF8E0848183608483089531
:0C277A00E0EAF8E084818B7F84830895FE
:0C278600E0EAF8E0848184608483089518
:0C2792008091040886FB882780F90895D8
:0C279E008091440886FB882780F908958C
:0C27AA0090910B0A81E090FF80E0089500
:0C27B6008091240886FB882780F9089594
:0A27C2008091A508829581700895AA
:0A27CC008093A4319093A531089585
:0A27D6008093A2319093A33108957F
:0A27E0008093A8319093A931089569
:0A27EA008093A6319093A731089563
:0A27F4000E941B0F80E090E00895A2
:0A27FE008093B4319093B531089533
:0A2808008093B2319093B33108952C
:0828120080E00E945F100895B0
:08281A000E94BD1383E0089544
:082822000E94BD1384E008953B
:08282A000E94C31388E0089529
:08283200FC0164BF408308951E
:06283A008091C0310895F9
:062840000E9454120895ED
:062846000E9454120895E7
:06284C000E949E12089597
:042852000C940000E2
:0428560081E0089580
:04285A0085E0089578
:04285E0083E0089576
:022862000895D7
:022864000895D5
:022866000895D3
:022868000895D1
:10286A00221354129E12B209E8078608231426146A
:10287A002014D91211140D1461121514CE127D0EE2
:04288A009F0EAA12E1
:0E288E000000000200000000FA13000000002D
:02289C00BE0E6E
:02289E000D111A
:0228A000FC0E2C
:0228A200231100
:0228A4003414EA
:0228A6003314E9
:0228A8003214E8
:0228AA003114E7
:0228AC003A0FE1
:0228AE003911DE
:02000004008278
:090000000000020000C00700002E
:00000001FF
