:020000040000FA
:1000000080315528303430347E1480314E01161E34
:100010000A280B2813280C1E0E280F2813289031AD
:10002000A520803153280B1F162817285328191F85
:100030001A281B2826280F1F1E281F2826284101A2
:1000400069088A0068080A0080315328991F292806
:100050002A2835288F1F2D282E283528410167088A
:100060008A0066080A0080315328191E382839286A
:1000700044280F1E3C283D28442842015F088A007E
:100080005E080A0080315328991E472848285328C3
:100090008F1E4B284C28532842015D088A005C08BB
:1000A0000A00803153287E10090080315728410111
:1000B000803102208031EE00803103208031EF005A
:1000C00086308400903085006030860001308700E3
:1000D00007309031792080314C3084009430850095
:1000E000A0308600013087002230903179208031A5
:1000F000FC0162308400003085000C3090317320A8
:100100008031A0308400003085004430903173206D
:1001100080312030840001308500303090317320F0
:100120008031C2308400013085002030903173204E
:1001300080312030840002308500403090317320BF
:100140008031A0308400023085005030903173201F
:1001500080312030840003308500203090317320BE
:100160008031A030840003308500503090317320FE
:10017000803120308400043085005030903173206D
:1001800080317E1040018031C5284201E801923162
:10019000A322803150304001E1006108F10020309D
:1001A0009231B92280318B170B178E313E26803168
:1001B0009031D22080319F31A92780314001E10068
:1001C00061084201E8006803031DE728E828BD290B
:1001D0009F31FB278031013A031DEF28F0280829C1
:1001E0004E018C1293313323803197313B2780317C
:1001F00093311A2380319731CE2780318931BD2147
:100200008031EA2991311E218031823120228031D2
:100210009331D3238031003A031D0F29102902297D
:1002200098290030840098308500013F8A00003F03
:100230000A0081314001E1006408A03E86000230DE
:100240008700610881006408A03E860002308700B4
:100250000108E10061084201E90040016408A03E94
:100260008600023087000D3001060319382939292C
:100270004A296408A03E8600023087000A30010641
:100280000319432944294A294F306406031D49298B
:100290004A296C296408A03E86000230870081014B
:1002A000A030E1006108F100A0309331802380315B
:1002B000A030853122258031A03095312C25803128
:1002C000A0304001E1006108F100A03093318023AB
:1002D00080314001E40170290130E1006108E40748
:1002E000303042016906031D762977297A294001B9
:1002F0009816982931306906031D7F2980298329A2
:1003000040019812982933306906031D88298929EC
:100310008E29003091318921803198293430690645
:10032000031D932994299829013091318921803125
:100330000630840098308500013F8A00003F0A00A3
:100340008131003A031DA529A6291129EA299131F5
:100350001E2180314001E10061084201E700670889
:100360004001E1006108F30002308400983085000C
:10037000013F8A00003F0A0081319331D32380314D
:10038000003A031DC429C529A729DC2900308400AF
:1003900098308500013F8A00003F0A00813140010A
:1003A000E1006108F3005C30840098308500013F73
:1003B0008A00003F0A0081310630840098308500B1
:1003C000013F8A00003F0A008131003A031DE929FC
:1003D000EA29C629913151218031013A031DF129C1
:1003E000F229DB2801304001E10061084101D0071A
:1003F00042016808031DFD29FE29082A0330410136
:100400005002031C042A052A102ACF01CF0A102A01
:10041000063041015002031C0E2A0F2A102A052A19
:100420004F03031D142A152ADB2842016808833173
:100430003E2380314101CF01D001DB288031552896
:100440004001B4001C2B0230AC002C084101E1003B
:100450003D2B3408AC002C08ED0053306D06031D15
:10046000322A332A362A4101E201E20A03304001EE
:10047000AC002C084101E1003D2B3A303402031C52
:10048000422A432A4C2A34085F39C93EAE00FF3065
:1004900003180030AF00532A3408D03EAE00FF30BE
:1004A00003180030AF002E08AC002C084101E0001A
:1004B00004304001AC002C084101E1003D2B3A30F2
:1004C0003402031C642A652A6E2A34085F39C93E47
:1004D000B000FF3003180030B100752A3408D03E58
:1004E000B000FF3003180030B10041016008400146
:1004F000AC000330AC35FF3E031D7A2A2C353007A3
:10050000AD002D084101E00005304001AC002C0891
:100510004101E1003D2B3A303402031C902A912A1C
:100520009B2A34085F39C93E4101CD00FF300318D2
:100530000030CE00A32A3408D03E4101CD00FF3068
:1005400003180030CE000130E0026008031DA92A24
:10055000AA2AAD2A4101E1013D2B06304001AC0041
:100560002C084101E1003D2B3A303402031CB92A2A
:10057000BA2AC32A34085F39C93EB200FF300318D3
:100580000030B300CA2A3408D03EB200FF3003184E
:100590000030B30041014E084001AD0041014D085B
:1005A0004001AC00AC0EAD0EF030AD052C080F399B
:1005B000AD04F030AC0532082C074101CD004001FC
:1005C00033082D3D4101CE00533040016D06031D1F
:1005D000EA2AEB2AF52A41016203031DF02AF12AD7
:1005E000F52AE20195317F25823141014D08400114
:1005F000AC002C08A7006D088731C127823101307B
:100600004101E0026008031D062B072B842A5330AA
:1006100040016D06031D0D2B0E2BAA2A88314120A7
:100620008231AA2A5B303406031D172B182B3D2B71
:100630004101E101E10A3D2B410161084001AC00AB
:10064000AD012D08003A0319262B122B2C08003A75
:100650000319122B013A0319232A033A0319292AF1
:10066000013A03193D2A073A03195F2A013A03198F
:100670008B2A033A0319B42A122B08004001CA003E
:100680009031672083314001B4003408CB00CF01A2
:1006900090310220833101394001B4003408DA007E
:1006A0005A03031D542B552B572BDA01592BDA0112
:1006B000DA0A90316D2083314001B4003408CE0055
:1006C00001304E05B4005A080139B5000130B53586
:1006D000890B672B4A080139B6000130B635FF3E59
:1006E000031D6E2B3635350734070739B700370839
:1006F000CC00D2010C0E0139B4000130B435890BA5
:100700007E2B0C0C013934070339B5003508CD00B8
:10071000D50158309131442183314001C501B801E0
:100720005B308A31732283317B304001B40034085E
:10073000F30000308400A0308500013F8A00003FB4
:100740000A00833140014B08B4003408F6004F30F2
:1007500089314E2183314F304001B4003408F50017
:100760005030893184218331883100208331400128
:100770004C08B4003408F600523089314E218331E0
:1007800052304001B4003408F5004C3089318421E6
:10079000833188310020833140014D08B400340892
:1007A000F600553089314E21833155304001B40077
:1007B0003408F500473089318421833188310020A5
:1007C000833140015908FA005808F9004530923148
:1007D0003722833145304001B4003408F5005430ED
:1007E000893184218331883100208331FF304001F9
:1007F0005B05F9000F305C05FA0038309231372282
:100800008331FF3040015D05F9000F305E05FA00CD
:100810003830923137228331FF3040015F05F900D3
:100820000F306005FA00383092313722833138308A
:100830004001B4003408F50041308931842183310E
:100840007D304001B4003408F30000308400A03053
:100850008500013F8A00003F0A0084310D304001CD
:10086000B4003408F30000308400A0308500013F5C
:100870008A00003F0A0084310A304001B400340885
:10088000F30000308400A0308500013F8A00003F63
:100890000A00843108004001B30060308600013056
:1008A000870028308400003085000730A50016003E
:1008B0001A00A50B572C7B08B5007A08B400340841
:1008C0003504031D642C652C692C2830B4000030DD
:1008D000B5003508F2003408F1009331012384316A
:1008E00072084001B9007108B80041014208400196
:1008F000B700410141084001B600B71B802C812C94
:10090000952C3708803AA5003908803A2502031D46
:100910008B2C38083602031C8E2C8F2C902C952C97
:1009200040013708B9003608B80040013908B7005F
:100930003808B600410140084001B20041013F08BB
:100940004001B10041014318A62CA72CC82CB92C9A
:100950002030F7000030F80040013308A5002508DA
:10096000F9008C310824843101304001B80700308F
:10097000B93D40013908803AA5003208803A250285
:10098000031DC42C31083802031CC72CC82CA82C0A
:100990004001AF01B001E82C400134088600350861
:1009A00087000108A500A6012508F7002608F80021
:1009B0003308A7002708F9008C310824843101305E
:1009C0004001B4070030B53D0130AF070030B03D05
:1009D0003008803AA5003708803A2502031DF22C22
:1009E00036082F02031CF52CF62CCC2C4101431C9D
:1009F000FA2CFB2C1C2D0D2D2030F7000030F800B8
:100A000040013308A5002508F9008C310824843101
:100A100001304001B8070030B93D40013908803A43
:100A2000A5003208803A2502031D182D310838022E
:100A3000031C1B2D1C2DFC2C40013908FB00380821
:100A4000FA000800F9007908F1000230F200933151
:100A50000123853171080907F6007608F8005B303C
:100A6000F6007608F3005C30840098308500013F82
:100A70008A00003F0A008531410163080F39B13E09
:100A80008600013087000108F6007608F3005C302C
:100A9000840098308500013F8A00003F0A008531BC
:100AA0000130F60076084101E3075330F60076087E
:100AB000F3005C30840098308500013F8A00003FDD
:100AC0000A0085317808F6000430F636890B652D6A
:100AD00076080F39B13E8600013087000108F70023
:100AE0007708F3005C30840098308500013F8A006D
:100AF000003F0A00853178080F39B13E8600013089
:100B000087000108F6007608F3005C308400983016
:100B10008500013F8A00003F0A008531C72D790812
:100B20008600023087000108F6000430F636890B93
:100B3000962D76080F39B13E8600013087000108F6
:100B4000F7007708F3005C30840098308500013F9F
:100B50008A00003F0A00853179088600023087004C
:100B600001080F39B13E8600013087000108F60008
:100B70007608F3005C30840098308500013F8A00DD
:100B8000003F0A0085310130F6007608F907790840
:100B90008600023087000108031DCF2DD02D8F2D38
:100BA0005D30F6007608F3005C30840098308500F4
:100BB000013F8A00003F0A00853108004001C30060
:100BC0003A0886008701403FBC00413FBD003C0819
:100BD00084003D0885001200253A031DF02DF12DFB
:100BE0006B2E3A08860087010130810741310318D6
:100BF000810A4101BF01C001C301C401FF30C1002E
:100C0000FF30C20040013A0886008701403FBC0027
:100C1000413FBD003C0884003D0885001200733A46
:100C2000031D132E142E362E3A088600870101303C
:100C3000810741310318810A3B08860087010108BA
:100C40008400850102308107003FC100013FC200DE
:100C50004208FB004108FA00430884314B248531E7
:100C60007B084001BB007A08BA008E2E3A08860045
:100C70008701403FBC00413FBD003C0884003D0867
:100C800085001200253A031D462E472E602E3A0895
:100C9000860087010130810741310318810A253020
:100CA000F7000030F8004308BC003C08F9008C3124
:100CB0000824853101304001BA000030BB008E2E7F
:100CC0003A08860087010130810741310318810A03
:100CD000BA01BB018E2E3A0886008701403FBC0056
:100CE000413FBD003C0884003D0885000008BE006F
:100CF000BF013E08F7003F08F8004308C000400865
:100D0000F9008C310824853140013A0886008701BA
:100D10000130810741310318810A5A2E0800FA0078
:100D20005B30F7007708F3005C3084009830850072
:100D3000013F8A00003F0A008631410163080F39F4
:100D4000B13E8600013087000108F7007708F30004
:100D50005C30840098308500013F8A00003F0A0023
:100D600086310130F70077084101E3077A08F70080
:100D70007708F3005C30840098308500013F8A00DA
:100D8000003F0A0086317608F1000030F20093310E
:100D9000012386317108F7007208F8000430F83634
:100DA000F70C890BCF2E77080F39B13E8600013042
:100DB00087000108F9007908F3005C30840098305E
:100DC0008500013F8A00003F0A0086317608F10065
:100DD0000030F20093310123863171080F39B13EA2
:100DE0008600013087000108F7007708F3005C30C7
:100DF000840098308500013F8A00003F0A00863158
:100E0000152F7608860087010108F7007708F300A0
:100E10005C30840098308500013F8A00003F0A0062
:100E200087310130F7007708F607760886008701DA
:100E30000108031D1C2F1D2F012F5D30F7007708BF
:100E4000F3005C30840098308500013F8A00003F49
:100E50000A0087310800F8015E3084009830850070
:100E6000013F8A00003F0A008731F3007308F50054
:100E70005E30840098308500013F8A00003F0A0000
:100E80008731F3007308F6005E30840098308500E7
:100E9000013F8A00003F0A008731F3007308F70022
:100EA000702F4F307606031D562F572F802F4B3053
:100EB0007706031D5C2F5D2F802FF801F80A802F25
:100EC00072307606031D652F662F802F72307706ED
:100ED000031D6B2F6C2F802FF801802F0030C02F47
:100EE0007508F300F4017408003A0319782F6E2F87
:100EF0007308413A0319512F043A0319602F6E2FDA
:100F00005E30840098308500013F8A00003F0A006F
:100F100087315E30840098308500013F8A00003FB1
:100F20000A0087315E30840098308500013F8A00D6
:100F3000003F0A0087315E30840098308500013F11
:100F40008A00003F0A0087315E30840098308500B7
:100F5000013F8A00003F0A0087315E3084009830EC
:100F60008500013F8A00003F0A0087315E3084001F
:100F700098308500013F8A00003F0A0087317808D9
:100F800008004001AA00EB2F2708A8000430A8366B
:100F9000890BC72F28080139A9002908AB002B08A5
:100FA000031DD32FD42FDC2F2718D72FD82FDA2FBC
:100FB0009816FB2F9812FB2F2718DF2FE12F0130F7
:100FC000E22F0030913189218731FB2F270893319F
:100FD000EF238731FB2F2A08A800A9012908003A2E
:100FE0000319F32FFB2F28084C3A0319C42F1F3A7B
:100FF0000319E62FFB2F080054011E0C01390800CD
:101000002C30F5007508F30000308400A030850016
:10101000013F8A00003F0A00883108004101201585
:101020001E289F31D827883140289F31A627883134
:10103000033040289F31DD27883140283708F100F0
:101040007108FA000B30A03E86008701413F8A00FC
:10105000403F0A008831F200F3017308003A031997
:1010600032281A287208013A03191A28033A031978
:101070001128013A03191128073A031915281A28CB
:1010800008007D304001A8002808F30000308400EB
:10109000A0308500013F8A00003F0A0088310D30F2
:1010A0004001A8002808F30000308400A03085002B
:1010B000013F8A00003F0A0088310A304001A80041
:1010C0002808F30000308400A0308500013F8A002A
:1010D000003F0A00883141015E08C23E86000130AF
:1010E000870081018F317D27883108004001AC00E5
:1010F00092314B228831003A03197F2880287828C2
:1011000002304001A9002908FB0019308C31E92484
:1011100088314001AA002A08AD000330A90029083F
:10112000FB0019308C31E92488314001AA002A08DB
:10113000AE002E08AA002D08A9000430AB002A0D2D
:10114000AA0CA90CAB0B9F282C0886008701290844
:10115000C03F2A08C13F08004001AC009231612223
:101160008831003A0319B528B628AE28043040016A
:10117000A9002908FB0019308C31E924883140018D
:10118000AA002A08AD000530A9002908FB00193083
:101190008C31E92488314001AA002A08AE002E08CB
:1011A000AA002D08A9000430AB002A0DAA0CA90C36
:1011B000AB0BD5282C08860087012908C03F2A08D8
:1011C000C13F08004001AC00923177228831003ADB
:1011D0000319EB28EC28E42806304001A90029086F
:1011E000FB0019308C31E92488314001AA002A081B
:1011F000AD000730A9002908FB0019308C31E92423
:1012000088314001AA002A08AE002E08AA002D0845
:10121000A9000430AB002A0DAA0CA90CAB0B0B29BA
:101220002C08860087012908C03F2A08C13F080012
:10123000F8007808F1000030F20093310123893181
:101240007108F7007708F807760E0F398919F0381A
:101250000F39B13E8600013087000108F700780899
:1012600086008701770881000130F7007708F807CA
:1012700076080F39B13E8600013087000108F7007B
:10128000780886008701770881000130F700770829
:10129000F80778088600870181010800F8007808BF
:1012A000F1000030F2009331012389317108F70019
:1012B0007708F807760E0F398919F0380F39A03EF4
:1012C0008600013087000108F70078088600870152
:1012D000770881000130F7007708F80776080F39A2
:1012E000A03E8600013087000108F70078088600DC
:1012F0008701770881000130F7007708F807780840
:101300008600870181010800F7007708F60076085B
:10131000F30000308400A0308500013F8A00003FC8
:101320000A0089313A30F6007608F3000030840074
:10133000A0308500013F8A00003F0A008931B429AE
:101340007508860087010108F6007608F300003072
:101350008400A0308500013F8A00003F0A008931E7
:101360000130F6007608F507750886008701010848
:10137000031DBB29BC29A02908004001A201B60118
:10138000D9293608E23E840098300318013E8500D2
:101390000008A0002008B5003508A0002008F600CD
:1013A000223089311821893101304001A000200804
:1013B000B607E230F1009830F20093310123893111
:1013C00040013608A000A10172082102031DEA298C
:1013D00071082002031CED29EE29C1292230A0004A
:1013E0002008F600563086318F26893108007C08A7
:1013F000383E860001308700810142011D1D012A0F
:10140000022A0D2A7C08383E8600013087008114AC
:101410005B088A005A080A008A3142019D1C112A81
:10142000122A1D2A7C08383E8600013087000115EB
:1014300059088A0058080A008A317C08383E86001C
:101440000130870001080319262A272A2E2A420183
:1014500057088A0056080A008A31312A93316523D9
:101460008931080040016608203E8600013087006F
:10147000810154011D1D3D2A3E2A4B2A4001660868
:10148000203E8600013087008114420155088A0001
:1014900054080A008A3154019D1C4F2A502A5D2AA3
:1014A00040016608203E8600013087000115420198
:1014B00053088A0052080A008A3140016608203E1B
:1014C00086000130870001080319672A682A6F2AFD
:1014D000420151088A0050080A008A31722A933169
:1014E0009B238A3108004001AF0092314B228A31A0
:1014F000003A03197C2A7D2A752A303088317620FB
:101500008A3140012F08860087013008C03F31082A
:10151000C13F923161228A31003A0319902A912AFF
:10152000892A30308831AC208A3140012F08023EB0
:10153000860087013008C03F3108C13F92317722D1
:101540008A31003A0319A52AA62A9E2A303088310A
:10155000E2208A3140012F08043E860087013008CE
:10156000C03F3108C13F08006E304001CC009830C8
:10157000CD005408CE00FF39031D0430CF00913157
:10158000FD218A31B830FA009830FB004001540840
:101590008C319A248A31003A0319CF2AD02ADB2AC7
:1015A0004101D4010C304001AE00A030AF009431B5
:1015B0000C248A31F42A8930FA009830FB0040016B
:1015C00054088C319A248A31003A0319E82AE92A0E
:1015D000F42A4101D401D40A0A304001AE00A030FF
:1015E000AF0094310C248A3108004E019912F73073
:1015F000F1000930F200903137208A314E01191282
:101600009330F1001430F20090313D208A310830DF
:1016100042019F0090309D0024309E0044309B008A
:101620009C018930F1001F30F20090312B208A316B
:10163000B030F1001F30F200903131208A31AC30EF
:10164000F1001F30F200903125208A314101D30191
:101650004001EC01EB010830F30073084101ED009B
:10166000FC014001EA01E9014E01991608004E0112
:1016700099133230F1000A30F200903155208B314D
:101680004E0119136E30F1001430F20090315B20DE
:101690008B31083054019F0090309D0024309E0013
:1016A00040309B0003309C008A30F1001F30F20074
:1016B000903149208B31B830F1001F30F200903169
:1016C0004F208B31B430F1001F30F20090314320B5
:1016D0008B314101D1014001E801E7010830F300FD
:1016E00073084101EC004001E601E5014101D2012E
:1016F0004E01991708004001A600400126088B31D1
:10170000C0238B31003A0319862B872B7D2BDB30CE
:10171000F6001130F70027304001A2002208F8003F
:1017200091312A218B310130F1000030F20020305C
:10173000913198218B310030F6001030F700F8011C
:10174000913137218B319F31F1278B319231E82252
:101750008B31013A0319AD2BAE2BA62B4001280883
:10176000A3002708A2002308A200A3012708A500C0
:10177000A40122082404A00023082504A1000800D5
:10178000F400F501F50A4101A018C72BC82B062C5F
:101790007408F3007308A1002010A014A0110E30EB
:1017A000F3007308A900F430A7000130A800201549
:1017B0008D30AB001F30AC00B7018D30AD001F3055
:1017C000AE00B8018D30AF001F30B000B9018D30D0
:1017D000B1001F30B200BA018F30B3001F30B40027
:1017E000BB01913106218B319F3191278B31003024
:1017F000F1000030F20090310D208B315530F100B6
:101800001530F200903113208B31F5017508080076
:10181000790803190C2C0D2C122C7908031D112C9E
:10182000122C172C77089031C9208C31472C79085D
:10183000033E86008701160001040319202C212C89
:101840003F2C7908033E86008701403F4001A000FD
:10185000413FA100790A86008701403FA200413F35
:10186000A3002308803AA4002108803A2402031D23
:101870003B2C2008220203183E2C3F2C472C790ACF
:10188000860087010130810741310318810A7708FA
:101890004001A000A1012008F7002108F80008007D
:1018A0009F31A3278C31F100410122088600870176
:1018B000710881000130F1007108A2070130A30214
:1018C0000030A43B230824040319672C682C6D2CDA
:1018D0009F31BC278C310530992C2015772C9F31F6
:1018E000EC278C31992C9F31E7278C31992C3708C4
:1018F000F1007108FA000B30A03E86008701413FDD
:101900008A00403F0A008C31F200F3017308003A6C
:1019100003198B2C732C7208013A0319732C033AA8
:1019200003196F2C013A03196F2C073A0319732C12
:10193000732C08004001A5007A087B040319A12C30
:10194000A22CE72C7B08F2007A08F10093310123E6
:101950008C3172084001A4007108A300D92C7B08C7
:10196000F2007A08F1002408F4002308F3002508A7
:101970008D31E3258C3171087204031DC02CC12CFC
:10198000C42C40012508E82C7A0884007B088500D7
:1019900000084001A000A1012008F1002108F20088
:1019A0002508013E93314C238C314001A2002208CE
:1019B000A50025080319DD2CDE2CE72C2508860060
:1019C000043087000108031DE62CE72CAF2C003003
:1019D00008004001A1002A30A0002008A500023024
:1019E000A3000030A400400121088B31C0238C31BA
:1019F000003A0319FC2CFD2CF32CCA30F6001130F0
:101A0000F70025304001A0002008F80091312A217C
:101A10008C310130F1000030F2007B30913198219F
:101A20008C310030F6001030F700F8019131372189
:101A30008C319F31F1278C319231E8228C31400179
:101A4000A0002008A20022030319272D282D1C2DF9
:101A50002208031D2C2D2D2D2E2D382DFF30A307F0
:101A6000FF30A43D23082404031D372D382DF32C0B
:101A70002508080090318D208D31031C402D412D0B
:101A8000712D4E2D9F31CE278D318D2D9F31D32736
:101A90008D318D2D9F31DD278D318D2D41013A08FE
:101AA000F2007208FA001130A03E86008701413F23
:101AB0008A00403F0A008D31F300F4017408003AB7
:101AC0000319632D4A2D7308013A03194A2D033A6D
:101AD0000319422D013A0319462D073A03194A2DDD
:101AE0004A2D4101A0110230A03E86008701403FEF
:101AF00084008501810A00089F31C4278D3101309F
:101B00004101A3020030A43B23082404031D892DB6
:101B10008A2D8C2D06308D2D0330080040019C014C
:101B2000313098009901C1309A0008309600DE30BB
:101B30009200EE309300253094007E01CE01E1301A
:101B4000C3000C30B800E501C401B901CF01E601C2
:101B5000BA01C501D001FF30BB00FF30C600FF3025
:101B6000D1003F30BC003F30C7003F30D2003F13B0
:101B70003E133D178B30F1001F30F2009031612091
:101B80008D314E01161609307D01C5001230C90095
:101B900016307E01A3001530A1002530A4000F30BF
:101BA0009C0015307D01CD000A30C6001130C80000
:101BB00013307E0199000F30980014309A000B30DA
:101BC0007D01CB000800F6007608F5007508F900E5
:101BD0007208F8007108F7000130F3020030F43B9E
:101BE000730A031DF72D740A031DF72DF82D072E18
:101BF000F101F2013D2E0130F5007508F9070130C1
:101C0000F7070030F83D0130F3020030F43B79086B
:101C1000860004308700010803190F2E102E2F2E86
:101C2000770884007808850012000319182E192EF1
:101C30002F2E7308740403191E2E1F2E2F2E7708C3
:101C40008400780885000008F500790886000430D3
:101C500087000108750603192E2E2F2EFB2D7908FB
:101C60008600043087007708840078088500000823
:101C70000102F100F201031CF2030800F101F10A74
:101C80006830840098308500013F8A00003F0A00D8
:101C90008E31F101F10A6630840098308500013FF1
:101CA0008A00003F0A008E310130F1000030F2005E
:101CB0006A30840098308500013F8A00003F0A00A6
:101CC0008E31F1016630840098308500013F8A0032
:101CD000003F0A008E31F101F10A6430840098302F
:101CE0008500013F8A00003F0A008E31C830F100B4
:101CF0000030F2006A30840098308500013F8A008D
:101D0000003F0A008E318D2E5E30840098308500B1
:101D1000013F8A00003F0A008E3162308400983013
:101D20008500013F8A00003F0A008E31003A031D02
:101D30009A2E9B2E842E08005E30840098308500F9
:101D4000013F8A00003F0A008E314001D50055084E
:101D5000D60041015503031DAE2EAF2EE52E2530D2
:101D600040015606031DB52EB62ECC2E4101D501DD
:101D7000580886000430870081015A084001D500C8
:101D80005508D4006C30840098308500013F8A00EB
:101D9000003F0A008E31FF2E41015A0859075802B0
:101DA0000318D32ED42EFF2E40015608D500410132
:101DB0005808860004308700400155088100013032
:101DC000D50055084101D807FF2E253040015606A1
:101DD000031DEB2EEC2EF62E4101D501D50A5A0833
:101DE0004001D50055084101D800FF2E4101D60120
:101DF000D60A40015608D50055084101D7004101D7
:101E00005608080030304001A0002008A100303002
:101E1000A0002008A4003030A0002008A2007A1EF4
:101E2000122F132F182F3130A0002008A3001C2FD1
:101E30003030A0002008A3007A080F39303EA000FF
:101E40002008A1007B1E252F262F2B2F3130A0002C
:101E50002008A4002F2F3030A0002008A4007B0809
:101E60000F39303EA0002008A2007C30A0002008DE
:101E70004401A0004F304001A00020084401A1000F
:101E80002C304001A00020084401A200400123089A
:101E9000A00020084401A30040012108A000200860
:101EA0004401A4002C304001A00020084401A500FA
:101EB00040012408A00020084401A6004001220897
:101EC000A00020084401A7000D304001A000200818
:101ED0004401A8000A304001A00020084401A900E4
:101EE0000A304001A0002008F500203097310B2770
:101EF0008F3187312B278F310800C230F10001303C
:101F0000F200DC30F3009830F40097316C278F3109
:101F100071087204031D8D2F8E2FAB2F6830400186
:101F2000A7002708F30000308400A0308500013F9F
:101F30008A00003F0A008F3169304001A70027085E
:101F4000F30000308400A0308500013F8A00003F8C
:101F50000A008F31FF2FC230F1000130F2007C30D7
:101F6000F3009830F40097316C278F3171087204B8
:101F7000031DBB2FBC2FBF2F40019816FF2FC2306F
:101F8000F1000130F200A130F3009830F4009731F5
:101F90006C278F3171087204031DCF2FD02FD32FE0
:101FA00040019812FF2FC230F1000130F20095304D
:101FB000F3009830F40097316C278F317108720468
:101FC000031DE32FE42FE92F0030913189218F3158
:101FD000FF2FC230F1000130F200C330F30098301F
:101FE000F40097316C278F3171087204031DF92FAB
:101FF000FA2FFF2F0130913189218F31FF2F0800F7
:10200000033008009F31F6279031013C08004E0153
:1020100019080139F100710C080072084101CA0069
:102020007108C900080072084101C8007108C700A2
:10203000080040010C0E890C0139013C08004001E8
:102040000C0D0C0D0139013C080072084201D7004B
:102050007108D600080072084201DB007108DA003E
:10206000080072084201D9007108D80008007208FF
:102070004201DD007108DC00080072084201DF0047
:102080007108DE00080072084201D1007108D0001A
:10209000080072084201D5007108D40008007208D7
:1020A0004201D3007108D200080072084101E70024
:1020B0007108E600080072084101E9007108E800B3
:1020C000080072084101EB007108EA0008004001B5
:1020D0000C0D0C0D0139013C080040010C0E890C5F
:1020E0000139013C0800640080010131890B74282A
:1020F0000034FE0012001E00FE0B7A28003441015D
:10210000A0119F31A02790310430080028346E348C
:1021100075346C346C34293400344301110E890C4D
:10212000890C0139F100710C08009F318C27903126
:1021300041012010AA010E3008004101A0152135EF
:102140009F31C4279031033008007E013F1FA9282A
:10215000AA28AD2891317A21903108004101A015BB
:102160000314210D9F31C42790310530080041012F
:102170005208031DBC28BE280130BF2800300800CB
:1021800040016908031DC528C7280130C828003050
:102190000800F6007608F5007508F3009531A925CA
:1021A000903108000130F10071084001E200013077
:1021B000F1007108E3000800603051018D008F01CB
:1021C0009101063093009001920108004F019601A1
:1021D0009701980199019A019B019C019D010800BA
:1021E00071080319F428F528F82840011A13FA2871
:1021F00040011A17080071080319FF280029032954
:102200004001181005294001181408004301901AD4
:102210000A290B2911298F012830900091014F3094
:102220008D000800400192137103031D182919291C
:102230001B2998171C299813921708009331D32350
:102240009131003A0319252926291E294101D60179
:10225000570808007708F2007608F1007808F900BE
:102260007908F30000309431DD24913108007708BB
:10227000F2007608F1007808F9007908F3000230DE
:102280009431DD2491310800FB009531FF25913117
:102290007B088600870140012908C03F2A08C13F0A
:1022A000080000304E0190180130F1007108031948
:1022B0005A295B295C2990107108080066290030B2
:1022C0009131EC2191319531552591314101201801
:1022D0006A296B295F2908000130450190008F01B0
:1022E0009101C2308D008C014E019010FF304501EC
:1022F0008E00080041016A086B04031980298129B6
:1023000086296B088A006A080A0091317E013F1312
:1023100008004001A6000130A5002608A5026308B8
:102320002506FE392506E3009331B72391310800D5
:10233000F4004101201D9D299E29A7297408F3005E
:102340007308A2007208A4007108A30020110800FD
:102350000230F1000030F2007A0891319821913179
:102360000030F600F700F80191312A219131043054
:1023700008000130F1000030F2007A089131982114
:1023800091310030F600F700F80191312A219131A6
:10239000043008000130F1000030F2007A08913179
:1023A000982191310030F600F700F80191312A218F
:1023B0009131023008000230F1000030F2007A085A
:1023C0009131982191310030F600F700F8019131F8
:1023D0002A219131023008004E010F18F029F1290D
:1023E000FC294E010F1CF529F629F729FC29A030FC
:1023F0000032890BF829F12908004E304001D00045
:102400005008D3004D08C5004C08C4005330D0001C
:102410005008C600003097319D27913108004001D7
:10242000A0007908FB007B08F600200889311821FC
:1024300092317A08FB007B08F600400120088931C0
:1024400018219231080047304B019F000B309D004E
:10245000DC309C001D084101E5004B011C084101D6
:10246000E4004E018C1290304B019E0008004001A8
:10247000A0007908FB007B08F600200889314E2176
:1024800092317A08FB007B08F60040012008893170
:102490004E219231080002304001A6002608FB00C0
:1024A00019308C31E92492310139031D582A5A2AF6
:1024B00001305B2A00304001A7002708A800280847
:1024C000080004304001A6002608FB0019308C31BA
:1024D000E92492310139031D6E2A702A0130712AD4
:1024E00000304001A7002708A8002808080006308F
:1024F0004001A6002608FB0019308C31E9249231F6
:102500000139031D842A862A0130872A00304001C0
:10251000A7002708A80028080800962A0B30F30017
:102520006230890B912AF30B912A00320130F102BB
:102530000030F23B710A031DA12A720A031DA12A71
:10254000A22A8E2A08009031E62092318D318E2504
:1025500092319031DC20923191316C219231923163
:10256000232292318A31F52292318B3137239231F5
:102570000800F30073080319BE2ABF2ACF2A0230CD
:102580007102031CC42AC52ACF2A7308F2007208FC
:102590004101DA007108FF3EF2007208D90008001C
:1025A0007A0886008701403FF100413FF2007A0837
:1025B000023E860087010108913198219231003056
:1025C000F600F700F80191312A219231023008001B
:1025D000F201F20A41012018EE2AEF2AFF2AA01088
:1025E000FF30F1007108A1009F31912792319F3196
:1025F0009427923141012A08F1007108F200720813
:1026000008007208F5007108F4000A2B0130F10788
:102610000030F23D71088400720885001200031D2D
:10262000122B132B062B74087102F1007508723BF4
:10263000F200080090311F209331FB007B0840011D
:10264000A000A1012008FB007B08F60021308931A1
:10265000182193312130FB007B08F6005030863181
:102660008F26933108004001B5013A309131442161
:10267000933140013B08FA003A08F90035309231B5
:102680000F22933135304001B4003408F600543045
:1026900086318F2693310800F300730886000430DA
:1026A000870001087106031D562B572B592B730801
:1026B000642B7308860004308700F30A0108031DA9
:1026C000622B632B4D2B0030080042011908F000EB
:1026D0007C08403E86000130870070088100013090
:1026E000F0007008FC0708307C02031C782B792B63
:1026F0007A2BFC010130F00070084001E907080066
:10270000F5007108F2007208F3007508F200720813
:10271000F4007408860003308700F40A730884000C
:1027200002308500F30A0008C03F8908031D992B79
:102730009A2B892B080054011908F0004001660803
:10274000283E860001308700700881000130F000CB
:102750007008E60708306602031CAF2BB02BB12BC4
:10276000E6010130F00070084101D2070800943101
:102770002B2493311430F1000030F2006A308400D1
:1027800098308500013F8A00003F0A0093314001E4
:102790006308FB006208FA008F31022793319531FC
:1027A000032593310800410156080319D82BD92B72
:1027B000DB2B0130EE2B6230840098308500013F26
:1027C0008A00003F0A009331003A0319E82BE92BF5
:1027D000ED2B8E319C269331EE2B00300800F60055
:1027E0007608F50041015E08C23E86000130870090
:1027F000750881000130F5007508DE077608F500E0
:102800007508F30000308400A0308500013F8A0085
:10281000003F0A00943108004001B201B20A2F08BB
:10282000A6002E08A500A70196312A269431400162
:10283000A61B1B2C1C2C2A2C0A30F7000030F80099
:10284000F9018C3108249431F81B272C282C2A2CD0
:102850004001B20108002430FA007A084401A000C7
:102860002430FA007A08A1002430FA007A08A20085
:102870000330FA007A08F500203097310B279431A5
:10288000ED30F3009830F4000530FA007A08F500D6
:102890009631812694310800303431343234333467
:1028A00034343534363437343834393441344234BE
:1028B00043344434453446340034303431343234D3
:1028C00033343434353436343734383439344134AD
:1028D00042344334443445344634003408304101F2
:1028E0006C020318742C752C902C40016708303E44
:1028F000860001308700010854019A000130F00081
:1029000070084001E70708306702031C882C892CF7
:102910008A2CE7010130F00070084101EC07922C8D
:102920004E0119130800083041016D020318992C5B
:102930009A2CB52C40016B08483E86000130870078
:10294000010842019A000130F00070084001EB07D5
:1029500008306B02031CAD2CAE2CAF2CEB01013008
:10296000F00070084101ED07B72C4E011912080064
:10297000F900FA01FA0A41012018BF2CC02CDB2C07
:102980002014FA0179080319C62CC72CCA2CA901F6
:10299000A90ACE2C0230F8007808A9009F319727A9
:1029A00094319031072094310318D72CD82CDB2C8C
:1029B00091315E2194317A080800F50071087204A3
:1029C0000319E32CE42CF52C7535AB3E860087010A
:1029D0007108C03F7208C13F7308F4007508B73E24
:1029E0008600870174088100022D7535AB3E860094
:1029F00087018D30C03F1F30C13F7508B73E86004C
:102A00008701810108002D30FA007A084401A000F6
:102A10002D30FA007A08A1002D30FA007A08A200C1
:102A20000D30FA007A08A3000A30FA007A08A400F0
:102A30000530FA007A08F500203097310B279531E0
:102A4000E830F3009830F4000530FA007A08F50019
:102A50009631812695310800F6007608F1000330A2
:102A6000F2007C30F3009830F40097316C279531F8
:102A700071087204031D3D2D3E2D412D4001981615
:102A8000542D7608F1000330F200A130F3009830A5
:102A9000F40097316C27953171087204031D512D94
:102AA000522D542D4001981208009F3191279531E5
:102AB0004101A01D5C2D5D2D692D90318D2095313A
:102AC000031C632D642D692D0F30F500750841013D
:102AD000A90041012908F500F601F535F60D283069
:102AE000750784009830763D8500013F8A00003FDD
:102AF0000A009531F70077084101A90008007B30F2
:102B0000F5007508F30000308400A0308500013F17
:102B10008A00003F0A0095315330F5007508F30034
:102B200000308400A0308500013F8A00003F0A0089
:102B300095313A30F5007508F30000308400A0307C
:102B40008500013F8A00003F0A0095314101DE0106
:102B5000080041016D080319AE2DAF2DA92D4E01BE
:102B6000191AB32DB42DB82D730842019A00D12D36
:102B700019127308F20040016C08483E86000130CB
:102B80008700720881000130F2007208EC070830FB
:102B90006C02031CCC2DCD2DCE2DEC01013041015A
:102BA000ED024E011916080041016C080319D92DD8
:102BB000DA2DD42D4E01191BDE2DDF2DE32D7308E8
:102BC00054019A00FC2D19137308F40040016808A1
:102BD000303E860001308700740881000130F40027
:102BE0007408E80708306802031CF72DF82DF92D4A
:102BF000E80101304101EC024E01191708000530CF
:102C00004001AB002B08A00018308B317B2395319D
:102C100040012108B3002008B20033081F39AB007F
:102C20002B08B0003208AB002B08B1003108AB0014
:102C3000AC013008AD00AE012D08AE00AD012B088F
:102C40002D04B2002C082E04B3003308AA00320869
:102C5000A90008004001AC01AD01412E2B08A800DD
:102C6000A9012808F7002908F8002708AA002A085F
:102C7000F9008C310824963101304001AC07003056
:102C8000AD3D25082C07840026082D3D8500000851
:102C9000A8002808AB002B08031D4F2E502E2E2E07
:102CA0002D08A6002C08A50008004101A011023043
:102CB000F1007108AA00642E9F31D8279631802E2A
:102CC0009F31DD279631802E3908F1007108FA0016
:102CD0000F30A03E86008701413F8A00403F0A0036
:102CE0009631F200F3017308003A0319782E602E32
:102CF0007208023A03195C2E013A03195C2E602E09
:102D00000800F901A62E5E30840098308500013F4E
:102D10008A00003F0A009631F6007608F800740831
:102D2000F7007308F600790876078400770803181F
:102D3000770A85000008780603199F2EA02EA22E80
:102D40000030AD2E0130F6007608F90775087902DB
:102D5000031CAB2EAC2E832E013008004001690805
:102D60000319B32EB42EAE2E6A08383E8600013009
:102D700087000108F10071084101D30040016A0891
:102D8000403E8600013087000108F1007108F20022
:102D90000130F1007108EA0708306A02031CD12EE5
:102DA000D22ED32EEA014E01991201304001E902E0
:102DB0004E01991672080800410152080319E12ECC
:102DC000E22EDC2E40016508203E8600013087009F
:102DD0000108F10071084101D10040016508283E59
:102DE0008600013087000108F1007108F20001300F
:102DF000F1007108E50708306502031C002F012F60
:102E0000022FE5014E01991301304101D2024E011A
:102E1000991772080800F900F801342F6030840017
:102E200098308500013F8A00003F0A009731003A40
:102E300003191B2F1C2F342F78087907F60076080A
:102E40008600023087000108F7007708F3005C3045
:102E5000840098308500013F8A00003F0A009731C6
:102E60000130F6007608F80775087802031C392F40
:102E70003A2F0E2F08004001B30140308A317322EF
:102E80009731FF3040014005F9000F304105FA004D
:102E9000333092310F229731FF3040014205F90063
:102EA0000F304305FA00333092310F229731FF3053
:102EB00040014405F9000F304505FA0033309231E6
:102EC0000F22973133304001B2003208F6005830FB
:102ED00086318F2697310800752F0130F1070030B9
:102EE000F23D0130F3070030F43D730884007408AC
:102EF00085000008F5007108860072088700010847
:102F00007506031D842F852F8E2F71088600720889
:102F100087000108031D8D2F8E2F6D2F71088600ED
:102F20007208870073088400740885000008010295
:102F3000F100F201031CF20308004001C90045083A
:102F4000CB004408CA004101BD01BE01BB2F4A307D
:102F5000C7004708BA004608C8004808BB0049082F
:102F60008531DE25973140013A084101BD07400116
:102F70003B084101BE3D40014A0884004B088500E2
:102F80001200031DC42FC52FA72F41013E08400189
:102F9000C50041013D084001C400080090311920DE
:102FA0009731FB007B084001A300A0012308FB0030
:102FB0007B08F60020308931182197312030FB0042
:102FC0007B08F6004C3086318F2697319F31F627EB
:102FD0009731103EFB007B084001A300A0012308AD
:102FE000FB007B08F6002030893118219731203012
:102FF000FB007B08F6004C3086318F2697310800A5
:10300000AE341634A934153400340034C0341034CE
:103010003D341034F734093437341034003400347C
:1030200093341434F5340A34DC341634D43415347F
:1030300000340034B73410345B34103432340A3482
:1030400055341034FC3407346E34143437340B34B4
:10305000C9341F34AE3410349D3410343A340D3436
:1030600050340C347F3410340E340834CE341F34D2
:10307000D3341F34D8341F34DD341F34E2341F34CA
:10308000E7341F34EC341F3495341034553416347F
:103090000034003400340034003400340034003490
:1030A0000034003400340034003400340034003480
:1030B0000034003400340034D4341534DC34163495
:1030C000FC340734B7341034F0341034FB3410348B
:1030D000123411348D341234B4340A343C343C3458
:1030E0003C3420342534733420343E343E343E3472
:1030F00020340D340A3400346C34653464342034A4
:10310000643461347434613420346F34663466342A
:103110000034533454345234453441344D345F34E4
:103120004F34503445344E3400346C346534643498
:10313000203465347234723420346F34663466342B
:1031400000346C3465346434203464346134743451
:10315000613420346F346E34003452346534623458
:103160006F346F34743469346E3467340D340A3418
:1031700044344934533443344F344E344E3445345C
:103180004334543400346C3465346434203465344E
:103190007234723420346F346E3400341A34803414
:1031A0003F3400340A3440343F34003430342E3459
:1031B00030342E3431340034483465346C346C345B
:1031C0006F34003431342E3430342E343034003403
:1031D00045344E3444340D340A3443344D3444348D
:0431E0003E34203425
:103F12000800080008000800013008000530080009
:103F22004E010F1008004E01191008004301111430
:103F320008004301911408004301111508004301D0
:103F42009115080043010C0808004E010F140800E7
:103F5200410154080800933165239F310800420152
:103F62001D121D16080093319B239F310800540136
:103F72001D121D160800430191121116080043017B
:103F8200911611160800F100710843018C00080017
:103F920041012010AA010E3008009F319A279F315B
:103FA200013008009F319A279F31023008009F316B
:103FB2009A279F31013008009F319D279F310030A1
:103FC20008009F31BC279F31053008009F31C02770
:103FD2009F310A3008009F31C0279F310930080005
:103FE20000309431B8249F31080040016308013940
:103FF200013C08004E010C0E890C01390800A9345D
:104002001534AE341634E2349834D6349834E2346B
:0A40120098345B3400345D34003450
:020000040001F9
:0A000E00EC3FFF3F9F3FFF3FFF3F25
:00000001FF
